:020000040000FA
:1000000001288316860105158515051683128601BC
:10001000051D0F28851D1D20051E272008280617F1
:100020003220061386163220861206163220061259
:10003000851D1D28051E27280F28FF308600322029
:1000400086013220051E2728051D0F281D280617AA
:1000500006163220860186163220051D0F28851DC2
:100060001D282728C830A2009630A1000130A0002A
:0E007000A00B3828A10B3628A20B342808005C
:02007E0000344C
:0200800000344A
:02400E00F23F7F
:00000001FF
